:100000000C9473190C94A4190C94A4190C94A419AD
:100010000C94A4190C94A4190C94A4190C94A4196C
:100020000C94A4190C94A4190C94A4190C94A4195C
:100030000C94A4190C94A4190C94A4190C94A4194C
:100040000C94A4190C94FACC0C94A4190C94A41933
:100050000C94A4190C94A4190C94C9620C94E1A3F7
:100060000C94A4190C944E540C94A4190C94A41937
:100070000C94A4190C94A4190C94A4190C94A4190C
:100080000C94A4190C94A4190C94A4190C94A419FC
:100090000C94A4190C94A4190C94A4190C94A419EC
:1000A0000C94A4190C94A4190C94A4190C94A419DC
:1000B0000C94A4190C94A4190C94A4190C94A419CC
:1000C0000C94A4190C94A4190C94A4190C94A419BC
:1000D0000C94A4190C94A4190C94A4190C94A419AC
:1000E0000C94A4194B635B637A638A63A563AA6368
:1000F000AD63B263B563BA63BD63C263CC638C6541
:100100008F657E6582658865C665936597659D6523
:10011000A165A565AB65AF65B365C665B965BD6528
:10012000C165FDA202A307A311A31BA394A325A34A
:100130002DA335A33FA349A353A362A36CA394A308
:1001400076A380A38AA3084AD73B3BCE016E84BC2A
:10015000BFFDC12F3D6C74319ABD56833DDA3D0021
:10016000C77F11BED9E4BB4C3E916BAAAABE00006A
:1001700000803F05A84CCDB2D44EB93836A9020C48
:1001800050B9918688083CA6AAAA2ABE0000008021
:100190003F0020746F6F206C6F6E672065787472FB
:1001A0007573696F6E2070726576656E7465640A2A
:1001B0000020636F6C6420657874727573696F6E6C
:1001C0002070726576656E7465640A00536C6565AF
:1001D000702E2E2E005A2070726F6265206F75741B
:1001E0002E206265640A005A2070726F6265206F6B
:1001F00075742E2062656400205A3A200020593A16
:10020000200042656420583A2000526573756D697C
:100210006E67207072696E740052756D6261207233
:10022000656164792E005761697420666F7220756C
:100230007365722E2E2E004E6F206D6F76652E0028
:10024000456E642066696C65206C6973740A0042AF
:100250006567696E2066696C65206C6973740A0055
:1002600046696C652064656C657465643A00446534
:100270006C6574696F6E206661696C65642C2046DC
:10028000696C653A20006F70656E206661696C6507
:10029000642C2046696C653A200048656174696E7B
:1002A000672E2E2E0052756D626120726561647931
:1002B0002E004B494C4C45442E20006F6B00486586
:1002C0006174696E6720646F6E652E003F0A0020BE
:1002D000573A0048656174696E672E2E2E0052757C
:1002E0006D62612072656164792E0052756D626184
:1002F0002072656164792E0052756D6261204F66CF
:10030000662E004649524D574152455F4E414D457C
:100310003A4D61726C696E20312E312E302D524370
:100320003720284769746875622920534F55524316
:10033000455F434F44455F55524C3A68747470733F
:100340003A2F2F6769746875622E636F6D2F4D6148
:10035000726C696E4669726D776172652F4D61725C
:100360006C696E2050524F544F434F4C5F5645526C
:1003700053494F4E3A312E30204D414348494E4566
:100380005F545950453A52756D6261204558545238
:10039000554445525F434F554E543A3120555549C7
:1003A000443A63656465326132662D343161322DC1
:1003B000343734382D396231322D63353563363276
:1003C0006633363766660A007A5F6D696E3A2000DA
:1003D000795F6D696E3A2000785F6D696E3A200032
:1003E0005265706F7274696E6720656E6473746FA6
:1003F00070207374617475730A004D313435205365
:100400003C696E6465783E206F7574206F6620725B
:10041000616E67652028302D31290A005365747498
:10042000696E672054726176656C20416363656C08
:1004300065726174696F6E3A200053657474696EF9
:1004400067205265747261637420416363656C65F3
:10045000726174696F6E3A200053657474696E67D7
:10046000205072696E7420416363656C65726174BB
:10047000696F6E3A200053657474696E672050721C
:10048000696E7420616E642054726176656C2041DF
:100490006363656C65726174696F6E3A20002064F5
:1004A0003A0020693A0020703A0043290A0061624C
:1004B0006C656420286D696E2074656D7020004342
:1004C0006F6C642065787472756465732061726501
:1004D000200023646566696E6520204445464155C9
:1004E0004C545F4B64200023646566696E65202070
:1004F00044454641554C545F4B6920002364656672
:10050000696E65202044454641554C545F4B702030
:1005100000504944204175746F74756E652066699A
:100520006E69736865642120507574207468652055
:100530006C617374204B702C204B6920616E6420B9
:100540004B6420636F6E7374616E74732066726F98
:100550006D2062656C6F7720696E746F20436F6EDB
:1005600066696775726174696F6E2E680A0050491A
:1005700044204175746F74756E65206661696C65A1
:1005800064212074696D656F75740A0050494420B8
:100590004175746F74756E65206661696C65642160
:1005A0002054656D706572617475726520746F6F2B
:1005B00020686967680A00204B643A2000204B6974
:1005C0003A2000204B703A200020436C617373691D
:1005D0006320504944200A002054753A2000204BE3
:1005E000753A2000206D61783A2000206D696E3ADE
:1005F000200020643A200020626961733A20004F95
:10060000666673657473206170706C69656400451B
:1006100072723A20546F6F206661722100546F6FBE
:10062000206661722066726F6D2072656665726504
:100630006E636520706F696E740A003A20007A5FFD
:100640006D61783A20007A5F6D696E3A20005A2019
:100650004F666673657400416374697665204578FA
:100660007472756465723A2000220A00556E6B6ED2
:100670006F776E20636F6D6D616E643A202200208B
:100680002B000A436F72726563746564204265646F
:10069000204865696768742076732E20426564205F
:1006A000546F706F6C6F67793A0A00202B000A4212
:1006B00065642048656967687420546F706F67725D
:1006C000617068793A0A2020202B2D2D2D2042417F
:1006D000434B202D2D2B0A2020207C202020202061
:1006E0002020202020207C0A204C207C202020203C
:1006F000282B29202020207C20520A2045207C20E5
:10070000202020202020202020207C20490A204654
:10071000207C20282D29204E20282B29207C204792
:100720000A2054207C20202020202020202020204F
:100730007C20480A2020207C20202020282D2920D1
:100740002020207C20540A2020207C2020202020D3
:100750002020202020207C0A2020204F2D2D2046E4
:10076000524F4E54202D2D2B0A2028302C30290A90
:10077000004D65616E206F662073616D706C6564FD
:1007800020706F696E74733A200020643A20002054
:10079000623A200045716E20636F65666669636921
:1007A000656E74733A20613A200028422961636BB8
:1007B00000284629726F6E74002852296967687490
:1007C00000284C29656674003F4E756D6265722085
:1007D0006F662070726F626564202850296F696EA1
:1007E000747320697320696D706C61757369626CD4
:1007F00065202832206D696E696D756D292E0A009D
:1008000052756E6E696E6720696E204452592D5282
:10081000554E206D6F64650A00473239204175746A
:100820006F20426564204C6576656C696E670A00CE
:100830003F2856296572626F7365204C6576656C3A
:1008400020697320696D706C61757369626C6520D5
:1008500028302D34292E0A002569730025696D2062
:10086000256973002569682025696D202569730055
:10087000256964202569682025696D202569730034
:1008800025697920256964202569682025696D20FE
:10089000256973004E6F204C696E65204E756D6240
:1008A0006572207769746820636865636B73756D22
:1008B0002C204C617374204C696E653A20004B49C2
:1008C0004C4C45442E200053544F505045442E204C
:1008D000005072696E7465722073746F7070656415
:1008E0002064756520746F206572726F72732E209C
:1008F00046697820746865206572726F7220616E37
:100900006420757365204D39393920746F20726504
:1009100073746172742E202854656D7065726174F1
:100920007572652069732072657365742E20536536
:1009300074206974206166746572207265737461D5
:100940007274696E67290A004E6F20436865636B95
:1009500073756D2077697468206C696E65206E759B
:100960006D6265722C204C617374204C696E653A1F
:100970002000636865636B73756D206D69736D61CD
:100980007463682C204C617374204C696E653A2046
:10099000004C696E65204E756D626572206973202A
:1009A0006E6F74204C617374204C696E65204E75B7
:1009B0006D6265722B312C204C617374204C696E12
:1009C000653A20004D313130004D3331004D38341F
:1009D00020582059205A20450053442072656164F4
:1009E000206572726F720A00446F6E6520707269C2
:1009F0006E74696E672066696C650A0020496E76C0
:100A0000616C696420657874727564657220000099
:100A100000964300006B4300009643000000000076
:100A200000000000000000205A3A200020593A201F
:100A30000042656420583A200020706F7369746921
:100A40006F6E206F7574206F662072616E67652E01
:100A50000A003F50726F62652000206279746573EE
:100A6000290A0053657474696E67732053746F723A
:100A70006564202800454550524F4D2063686563EA
:100A80006B73756D206D69736D617463680A002006
:100A90006279746573290A002073746F726564202B
:100AA00073657474696E67732072657472696576B4
:100AB000656420280048617264636F646564204443
:100AC000656661756C742053657474696E67732014
:100AD0004C6F616465640A0020204D383531205A1E
:100AE000005A2D50726F6265204F666673657420E0
:100AF000286D6D293A0A0020204D323030204430D4
:100B00000A0020204D3230302044002044697361B7
:100B1000626C65640A0046696C616D656E74207371
:100B2000657474696E67733A0020440020490020A0
:100B3000204D333031205000504944207365747487
:100B4000696E67733A0A0020460020420020204D5B
:100B50003134352053312048002046002042002007
:100B6000204D3134352053302048004D617465727A
:100B700069616C2068656174757020706172616D67
:100B800065746572733A0A00205A002059002020CB
:100B90004D323036205800486F6D65206F666673A1
:100BA000657420286D6D290A00204500205A002018
:100BB000580020420020540020204D323035205370
:100BC00000416476616E636564207661726961627A
:100BD0006C65733A20533D4D696E2066656564729D
:100BE00061746520286D6D2F73292C20543D4D694B
:100BF0006E2074726176656C2066656564726174DE
:100C00006520286D6D2F73292C20423D6D696E691A
:100C10006D756D207365676D656E742074696D65A3
:100C200020286D73292C20583D6D6178696D756D94
:100C3000205859206A65726B20286D6D2F73292CFE
:100C400020205A3D6D6178696D756D205A206A6566
:100C5000726B20286D6D2F73292C2020453D6D610E
:100C600078696D756D2045206A65726B20286D6D01
:100C70002F73290A0020540020520020204D3230CA
:100C800034205000416363656C65726174696F6EF6
:100C9000733A20503D7072696E74696E672C2052F1
:100CA0003D7265747261637420616E6420543D749A
:100CB000726176656C0A00204500205A00205900B8
:100CC00020204D3230312058004D6178696D756DAE
:100CD00020416363656C65726174696F6E20286D75
:100CE0006D2F7332293A0A00204500205A002059FE
:100CF0000020204D3230332058004D6178696D75E9
:100D00006D2066656564726174657320286D6D2F52
:100D100073293A0A00204500205A0020590020205B
:100D20004D393220580053746570732070657220FD
:100D3000756E69743A0A004572723A204D415854F2
:100D4000454D50004D415854454D502074726967CF
:100D50006765726564004572723A204D494E54458C
:100D60004D50004D494E54454D502074726967678F
:100D700065726564004572723A204D494E54454D86
:100D80005020424544004D494E54454D5020747208
:100D900069676765726564004572723A204D415813
:100DA00054454D5020424544004D415854454D5006
:100DB00020747269676765726564001FFFFFFFFF3B
:100DC000FFFF600000000001FF400000000000FF86
:100DD0008000000000007F83CF00000C303F87FFC1
:100DE00080000C301F867980000C000F8C30C78388
:100DF0008C30E78C30CFC7CC31F38C30DCECEC336B
:100E0000B98C30D86C6C33198C30D06C0C33198C95
:100E100030D86C0C33198C30DC6C0E3B198C30CF15
:100E20007C079F198C30C77C038F1940000000009D
:100E30000002600000000000061FFFFFFFFFFFF838
:100E400000002100240027002A002D00300033007C
:100E500001010000040107010A0100002200250031
:100E600028002B002E003100340002010000050193
:100E700008010B01000020002300260029002C009F
:100E80002F003200000100000301060109010505E1
:100E90000505070508080808020202020A0A0808F0
:100EA000040404040101010101010101030303031E
:100EB00003030303040707070C0C0C0C0C0C0C0CAD
:100EC0000202020206060606060606060B0B0B0BBE
:100ED0000B0B0B0B010210202008081020401020E3
:100EE00040800201020108040201010204081020EE
:100EF00040808040201008040201800402018040EC
:100F00002010080402010804020101020408102054
:100F10004080010204081020408000000A0B0209F2
:100F20000C0D0E0807030401000000000000000083
:100F300000000000000000000000000000000000B1
:100F4000000000000000121110000000000000006E
:100F50000000000000000000000000000000000091
:100F60004B494C4C45442E2000202D20496E766183
:100F70006C6964206578747275646572206E756D35
:100F800062657220210A002020506C616E6E6572CD
:100F900042756666657242797465733A2000204630
:100FA000726565204D656D6F72793A20004F6374EC
:100FB00020313120323031360A00436F6D70696C58
:100FC00065643A2000286E6F6E652C20646566614A
:100FD000756C7420636F6E666967290A00207C2037
:100FE000417574686F723A2000323031362D3037D7
:100FF0002D33312031323A303000204C617374206F
:10100000557064617465643A200020312E312E30B1
:101010002D5243370A004D61726C696E0020536F88
:101020006674776172652052657365740A00205793
:1010300061746368646F672052657365740A002089
:1010400042726F776E206F75742052657365740AF3
:10105000002045787465726E616C2052657365740A
:101060000A00506F77657255700A0073746172746C
:101070000A006572726F722077726974696E6720F8
:10108000746F2066696C650A00456E6473746F70D6
:101090007320256320256320256320256300205AC3
:1010A0003A0020593A0020583A00656E6473746F14
:1010B0007073206869743A2000446F6E6520736114
:1010C00076696E672066696C652E0A004D323900BC
:1010D0004573746570732F6D6D004573746570731F
:1010E0002F6D6D005A73746570732F6D6D005A7398
:1010F000746570732F6D6D005973746570732F6D07
:101100006D005973746570732F6D6D00587374653D
:1011100070732F6D6D005873746570732F6D6D0053
:10112000412D74726176656C00412D747261766533
:101130006C00412D7265747261637400412D72659B
:10114000747261637400416D6178204500416D6186
:1011500078204500416D6178205A00416D6178200A
:101160005A00416D6178205900416D617820590025
:10117000416D6178205800416D61782058005654C7
:10118000726176206D696E005654726176206D69C9
:101190006E00566D696E00566D696E00566D617811
:1011A000204500566D6178204500566D6178205AC3
:1011B00000566D6178205A00566D617820590056AE
:1011C0006D6178205900566D6178205800566D6128
:1011D0007820580056652D6A65726B0056652D6A39
:1011E00065726B00567A2D6A65726B00567A2D6AAD
:1011F00065726B005678792D6A65726B0056787946
:101200002D6A65726B00416363656C0041636365C1
:101210006C005A204F6666736574005A204F6666EC
:1012200073657400436F6E74726F6C0046696C2E48
:10123000204469612E0046696C2E204469612E00AD
:101240004F6666004F6E20004520696E206D6D333D
:1012500000436F6E74726F6C0043616E6E6F74202A
:10126000656E746572207375626469723A2000025B
:101270002E2E004D61696E00436172642072656DAF
:101280006F766564004361726420696E7365727481
:101290006564004261627973746570205A0042612E
:1012A0006279737465702059004261627973746564
:1012B00070205800466C6F7700466C6F770046616F
:1012C0006E2073706565640046616E20737065659D
:1012D000640042656400426564004E6F7A7A6C6512
:1012E000004E6F7A7A6C65005370656564005370C8
:1012F000656564004D61696E005072656865617472
:1013000020504C41204265640050726568656174EC
:1013100020504C41005072657061726500507265DA
:1013200068656174204142532042656400507265D3
:101330006865617420414253005072657061726546
:10134000004D3432380053776974636820706F77CA
:101350006572206F6E004D38310053776974636891
:1013600020706F776572206F6666004D38300043DD
:101370006F6F6C646F776E00507265686561742082
:10138000414253005072656865617420504C4100C1
:101390004D38340044697361626C65207374657004
:1013A00070657273004D6F766520617869730047D0
:1013B00032380A47323900473239004C6576656C5D
:1013C000206265640053657420686F6D65206F66E8
:1013D000667365747300473238004175746F206816
:1013E0006F6D65004D61696E004D6F766520580028
:1013F0004D6F76652059004D6F7665205A0045780F
:1014000074727564657200457874727564657200F3
:101410004D6F7665205A004D6F76652059004D6FEF
:1014200076652058004D6F766520617869730000FD
:10143000000000300E0100C00E0A00500F1400D052
:101440000F1E0060102800E010320070113C00F008
:101450001146007012500000135A008013640000FF
:10146000146E00901478001015820090158C0010F6
:101470001696009016A0001017AA009017B400103E
:1014800018BE009018C8001019D2009019DC001086
:101490001AE600801AF000001BFA00801B0401F01D
:1014A0001B0E01701C1801F01C2201601D2C01E0B4
:1014B0001D3601501E4001D01E4A01401F5401B08C
:1014C0001F5E0130206801A020720110217C019074
:1014D000218601002290016026F401902A580280A2
:1014E0002EBC0250322003E03584035039E80380DB
:1014F0003C4C04544845524D414C2052554E4157A6
:10150000415900546865726D616C2052756E617747
:10151000617900206669727374005A00590058009E
:10152000486F6D6520002066697273740A005A0066
:1015300059005800486F6D6520006563686F3A0078
:101540007C3C3E5E2B3D3F2F5B5D3B2C2A225C00AA
:101550004572726F722077726974696E6720746F5A
:1015600020454550524F4D210A00526573656E6407
:101570003A20006F6B00627573793A207061757361
:10158000656420666F7220696E7075740A006275FA
:1015900073793A2070617573656420666F72207587
:1015A0007365720A00627573793A2070726F6365B1
:1015B0007373696E670A004B494C4C45442E2000FA
:1015C0004B494C4C45442E2000506C65617365209E
:1015D0007265736574005052494E5445522048411B
:1015E0004C544544005072696E7465722068616C99
:1015F0007465642E206B696C6C28292063616C6CA7
:101600006564210A00220A00656E71756575656959
:101610006E672022000000000000000000000000B3
:10162000005761726E696E673A20486F6D696E6728
:101630002042756D702044697669736F72203C207A
:10164000310A00000040400000404000000040001F
:1016500000964300006B4300009643FFFFFF2530D8
:1016600032693A25303269005A00590020003F00A3
:1016700058000920000000000000000000000000E9
:10168000007FFFE0000000000000000000000000FC
:101690007000E00000000000000000000000006199
:1016A000F86000000000000000000000000041F8A9
:1016B0002000000000000000000000000040F020BA
:1016C000000000000000000000000000406020005A
:1016D00000000000000000000000005801A07F8012
:1016E000000000000000004104005C63A0FFC00097
:1016F0000000000000002082005EF7A0FFC0000094
:1017000000000000002082005EF7A0FFC000000083
:10171000000000004104005C63A07F800000000026
:101720000000008208005801A07F80000000000037
:101730000001041000406020FFC000000000000015
:101740000104100040F020FFC00000000000000075
:1017500082080041F820FFC00000000000000041A6
:10176000040061F8603F000000000000000000007D
:10177000007000E01E0000000000000001FFFF807C
:101780007FFFE00C0000000000000001FFFF800070
:1017900000000000000000000000000000007FFFCB
:1017A000E00000000000000000000000007000E009
:1017B000000000000000000000000000630C60005A
:1017C0000000000000000000000000470E200000A4
:1017D000000000000000000000004F0F200000008B
:1017E0000000000000000000005F0FA000000000EB
:1017F00000000000000000005E07A07F80000000E5
:1018000000000000410400406020FFC00000000014
:1018100000000020820040F020FFC0000000000017
:10182000000020820040F020FFC000000000000007
:10183000004104004060207F8000000000000000A4
:101840008208005E07A07F80000000000000010405
:1018500010005F0FA0FFC000000000000001041096
:10186000004F0F20FFC000000000000000820800B1
:10187000470E20FFC000000000000000410400638C
:101880000C603F000000000000000000000070003D
:10189000E01E0000000000000001FFFF807FFFE06D
:1018A0000C0000000000000001FFFF80000000505D
:1018B00072696E742066726F6D205344004E6F2003
:1018C000534420636172640053746F7020707269B6
:1018D0006E7400526573756D65207072696E740068
:1018E0005061757365207072696E7400436F6E7419
:1018F000726F6C00507265706172650054756E6530
:1019000000496E666F2073637265656E00426162A6
:10191000797374657070696E6720580042616279EE
:101920007374657070696E672059004261627973E3
:1019300074657070696E67205A0000060900FE0029
:101940000000000001090008FE000005080806006C
:101950000040F0C88888987810050808060000C084
:10196000F88888888888F80505050600012030F881
:1019700030200508080600002070F820202020E014
:101980000509090600FF2070A8A8B88888702005FE
:1019900009090600FFE080C0B0A828302828050902
:1019A000090600FFF8A88888888888A8F8050A0A28
:1019B0000600FE205050505088A8A88870030303EA
:1019C00006000340A04000060900FE070192032123
:1019D00020FFFF08FF07FF000000060000010707C7
:1019E00006020080808080800080030202060105DC
:1019F000A0A00507070600005050F850F850500509
:101A000007070600002078A07028F02005070706C9
:101A10000000C0C8102040981805070706000060A5
:101A200090A040A89068020303060104C040800310
:101A3000070706010020408080804020030707063A
:101A4000010080402020204080050505060001207F
:101A5000A870A8200505050600012020F820200216
:101A600003030602FFC04080050101060003F802DF
:101A70000202060200C0C00505050600010810208C
:101A800040800507070600007088888888887003F2
:101A9000070706010040C040404040E00507070638
:101AA0000000708808708080F8050707060000F8BD
:101AB0001020100808F005070706000010305090AD
:101AC000F81010050707060000F880F00808887075
:101AD000050707060000708080F0888870050707FA
:101AE000060000F808102020202005070706000047
:101AF00070888870888870050707060000708888DD
:101B000078080870020505060200C0C000C0C002C7
:101B100006060602FFC0C000C0408004070706009A
:101B20000010204080402010050303060002F8004A
:101B3000F8040707060100804020102040800507B8
:101B4000070600007088081020002005070706001F
:101B50000070880868A8A87005070706000070884C
:101B600088F8888888050707060000F08888F088CC
:101B700088F005070706000070888080808870055F
:101B80000707060000F08888888888F005070706A0
:101B90000000F88080F08080F8050707060000F854
:101BA0008080F0808080050707060000708880B87C
:101BB000888870050707060000888888F888888864
:101BC000010707060200808080808080800507076B
:101BD000060000381010101090600507070600007E
:101BE0008890A0C0A090880507070600008080802C
:101BF000808080F805070706000088D8A8888888B4
:101C0000880507070600008888C8A89888880507FF
:101C10000706000070888888888870050707060016
:101C200000F08888F0808080050707060000708833
:101C30008888A89068050707060000F08888F0A04B
:101C40009088050707060000788080700808F00576
:101C50000707060000F8202020202020050707069F
:101C60000000888888888888700507070600008833
:101C7000888888885020050707060000888888889B
:101C800088A85005070706000088885020508888DB
:101C900005070706000088888850202020050707D0
:101CA000060000F80810204080F80307070601002E
:101CB000E08080808080E0050505060001804020EE
:101CC0001008030707060100E02020202020E0057F
:101CD0000303060004205088050101060000F802F5
:101CE000020206020580400505050600007008781E
:101CF00088780507070600008080B0C88888F0054E
:101D00000505060000708080887005070706000042
:101D1000080868988888780505050600007088F826
:101D200080700507070600003048E040404040054D
:101D300006060600FF708888780870050707060009
:101D4000008080B0C88888880107070602008000EC
:101D500080808080800308080601FF20002020206A
:101D600020A040040707060000808090A0C0A0903B
:101D7000030707060100C04040404040E00505055C
:101D8000060000D0A8A8A8A8050505060000B0C850
:101D90008888880505050600007088888870050613
:101DA000060600FFF08888F080800506060600FF22
:101DB000788888780808050505060000B0C8808086
:101DC0008005050506000070807008F0040707060E
:101DD00000004040E0404040300505050600008816
:101DE00088889868050505060000888888502005C1
:101DF00005050600008888A8A8500505050600000E
:101E000088502050880506060600FF8888887808D4
:101E100070050505060000F8102040F803070706C6
:101E2000010020404080404020010707060200805A
:101E3000808080808080030707060100804040206A
:101E40004040800502020600026890000000060083
:101E50000000000006000000000006000000000076
:101E60000600000000000600000000000600000060
:101E70000000060000000000060000000000060050
:101E80000000000006000000000006000000000046
:101E90000600000000000600000000000600000030
:101EA0000000060000000000060000000000060020
:101EB0000000000006000000000006000000000016
:101EC0000600000000000600000000000600000000
:101ED00000000600000000000600000000000600F0
:101EE00000000000060000000000060000000000E6
:101EF00006000000000006000000000006000000D0
:101F000000000600000000000600000000000600BF
:101F100000000000060000010707060200800080A4
:101F2000808080800507070600002070A8A0A870A8
:101F300020050707060000304040E04050A8050596
:101F400005060000887050708805070706000088A5
:101F50005020F820F820010707060200808080004A
:101F600080808005080806000030482050502090EE
:101F700060030101060107A0050707060000F888B5
:101F8000B8B8B888F805070706000170087888789F
:101F900000F80505050600012850A0502805030398
:101FA000060001F808080202020602064080050742
:101FB00007060000F888A88898A8F805010106001F
:101FC00006F8040404060003609090600507070605
:101FD00000002020F8202000F8040505060003601A
:101FE000902040F0030505060003E020E020E00219
:101FF000020206020640800508080600FF8888885D
:102000008898E88080050707060000789898781877
:102010001818020202060202C0C00202020602FFF3
:10202000408003050506000340C04040E005070767
:10203000060001708888887000F805050506000113
:10204000A0502850A00507070600008890A858B89F
:1020500008080507070600008890B848982038054A
:102060000808060000C040C048D83808080507071F
:102070000600002000204080887005080806000047
:102080004020007088F888880508080600001020A5
:10209000007088F888880508080600002050007045
:1020A00088F888880508080600006890007088F89D
:1020B00088880508080600005000708888F888881D
:1020C0000508080600002050207088F88888050759
:1020D000070600003860A0B8E0A0B80508080600B0
:1020E000FF70888080887020600508080600004026
:1020F0002000F880F080F8050808060000081000AD
:10210000F880F080F8050808060000205000F880EC
:10211000F080F80507070600005000F880F080F80E
:10212000030808060100804000E0404040E003084A
:1021300008060100204000E0404040E00308080697
:10214000010040A000E0404040E003070706010016
:10215000A000E0404040E005070706000070484846
:10216000E848487005080806000068900088C8A87C
:1021700098880508080600004020708888888870C4
:1021800005080806000010207088888888700508F7
:10219000080600002050007088888870050808062E
:1021A00000006890007088888870050808060000A4
:1021B00050007088888888700505050600018850E1
:1021C0002050880508080600FF1070A8A8A8A8706D
:1021D0004005080806000040208888888888700527
:1021E000080806000010208888888888700508087C
:1021F00006000020500088888888700508080600BE
:10220000005000888888888870050808060000103B
:10221000208850202020200509090600FFC04070BA
:102220004848704040E00408080601FF609090A014
:102230009090E080050808060000402000700878B3
:102240008878050808060000102000700878887853
:1022500005080806000020500070087888780508F6
:10226000080600006890007008788878050707065F
:1022700000005000700878887805080806000020E3
:1022800050207008788878050606060000D0287867
:10229000A0A8500506060600FF7080887020600523
:1022A00008080600004020007088F88070050808C3
:1022B0000600001020007088F880700508080600ED
:1022C000002050007088F880700507070600005055
:1022D000007088F880700308080601008040004004
:1022E000C04040E003080806010020400040C04014
:1022F00040E003080806010040A00040C04040E064
:10230000030707060100A00040C04040E0050707A2
:10231000060000A040A0107888700508080600009C
:10232000689000B0C888888805080806000040202A
:10233000007088888870050808060000102000706A
:10234000888888700508080600002050007088887A
:1023500088700508080600006890007088888870FA
:10236000050707060000500070888888700505057D
:102370000600012000F800200507070600FF107086
:10238000A8A8A8704005080806000040200088881A
:10239000889868050808060000102000888888983A
:1023A000680508080600002050008888889868059D
:1023B0000707060000500088888898680509090604
:1023C00000FF102000888888F808700407070601BD
:1023D000FFC04060506040E00508080600FF500064
:1023E0008888887808704D6F766520302E316D6D45
:1023F000004D6F766520316D6D004D6F7665203133
:10240000306D6D0050726570617265005265737455
:102410006F7265206661696C73616665004C6F61FF
:1024200064206D656D6F72790053746F7265206DF5
:10243000656D6F72790046696C616D656E74004DF3
:102440006F74696F6E0054656D706572617475723A
:1024500065004D61696E0050726568656174204168
:10246000425320636F6E6600507265686561742028
:10247000504C4120636F6E66005049442D4400501B
:1024800049442D44005049442D49005049442D49A8
:10249000005049442D50005049442D500020082040
:1024A00046616374002008204661637400200820A0
:1024B0004D6178002008204D6178002008204D698A
:1024C0006E002008204D696E004F6666004F6E203A
:1024D000004175746F74656D700046616E20737095
:1024E0006565640046616E207370656564004265D1
:1024F0006400426564004E6F7A7A6C65004E6F7AB4
:102500007A6C6500436F6E74726F6C0053746F72F7
:1025100065206D656D6F7279004265640042656487
:10252000004E6F7A7A6C65004E6F7A7A6C65004661
:10253000616E2073706565640046616E207370651E
:1025400065640054656D70657261747572650053E1
:10255000746F7265206D656D6F72790042656400FD
:10256000426564004E6F7A7A6C65004E6F7A7A6CC1
:10257000650046616E2073706565640046616E207B
:1025800073706565640054656D7065726174757211
:10259000650020746F6F206C6F6E672065787472B1
:1025A0007573696F6E2070726576656E7465640A06
:1025B0000020636F6C6420657874727573696F6E48
:1025C0002070726576656E7465640A0053442063FA
:1025D000617264206F6B0A006F70656E526F6F746A
:1025E000206661696C65640A00766F6C756D652E96
:1025F000696E6974206661696C65640A00534420E1
:10260000696E6974206661696C0A006175746F2572
:10261000692E67005374616E64617264204465764C
:10262000696174696F6E3A20004D65616E3A2000F1
:102630002020207369676D613A2000206D65616E0E
:102640003A20002020207A3A2000206F66200020C7
:102650005A00205900205800476F696E6720746F38
:102660003A00436C6F636B776973650A00436F755B
:102670006E7465722D0020446972656374696F6EB3
:102680003A2000202020616E676C653A2000537468
:10269000617274696E67207261646975733A2000B3
:1026A000506F736974696F6E696E67207468652016
:1026B00070726F62652E2E2E0A003F4E756D626538
:1026C00072206F66206C65677320696E206D6F766F
:1026D000656D656E74206E6F7420706C61757369C2
:1026E000626C652028302D3135292E0A005900589A
:1026F000003F53616D706C652073697A65206E6F61
:102700007420706C61757369626C652028342D3596
:1027100030292E0A004D3438205A2D50726F6265D0
:10272000205265706561746162696C6974792074A6
:102730006573740A003F566572626F7365204C655D
:1027400076656C206E6F7420706C61757369626C55
:10275000652028302D34292E0A006D0046696C61F1
:102760006D656E7420757365643A200053746174EE
:10277000733A20002C204C6F6E67657374206A6F6B
:10278000623A2000546F74616C2074696D653A2060
:102790000053746174733A20002C204661696C65A3
:1027A000643A20002C2046696E69736865643A209B
:1027B000005072696E74733A200053746174733AF6
:1027C000200024F4D43050C38E20C2A24017828B44
:1027D0007011127A910D816CD90AA861E108C7586D
:1027E0006607615143061E4B5D05C145A7041A41AA
:1027F0001104093D9803713931034036DB0265331A
:102800009102D4305402802E1D02632CEE01752AF1
:10281000C501B028A001102781018F2564012B2458
:102820004B01E0223401AC211F018D200D01801FDE
:10283000FC00841EED00971DDF00B81CD200E61BD3
:10284000C600201BBC00641AB200B219A8000A1905
:10285000A0006A189900D117910040178B00B51697
:10286000840031167E00B31579003A157300C71441
:102870006F0058146A00EE13660088136300251376
:102880005E00C7125B006C12570015125400C11194
:10289000510070114F0021114B00D61049008D10CE
:1028A00047004610440002104200C00F4000800F55
:1028B0003E00420F3C00060F3B00CB0E3800930E4B
:1028C00037005C0E3500270E3400F30D3200C10DC9
:1028D0003100900D3000600D2E00320D2D00050DE1
:1028E0002C00D90C2B00AE0C2900850C29005C0CA7
:1028F0002700350C27000E0C2600E80B2400C40B23
:102900002400A00B23007D0B23005A0B2100390B60
:102910002100180B2000F80A1F00D90A1E00BB0A6C
:102920001E009D0A1D00800A1D00630A1C00470A44
:102930001B002C0A1B00110A1A00F7091A00DD09F6
:102940001900C4091900AB091900920917007B0985
:102950001800630917004C091600360916002009F3
:1029600016000A091500F5081500E0081400CC0847
:102970001400B8081400A4081400900813007D087F
:1029800012006B08130058081200460812003408A1
:102990001100230811001208110001081100F007AE
:1029A0001000E0071000D0071000C0071000B007AB
:1029B0000F00A107100091070E0083070F00740796
:1029C0000F0065070E0057070E0049070E003B0772
:1029D0000D002E070E0020070D0013070D0006073F
:1029E0000D00F9060C00ED060D00E0060C00D40603
:1029F0000C00C8060C00BC060C00B0060C00A406B7
:102A00000B0099060C008D060B0082060B00770662
:102A10000B006C060B0061060A0057060B004C0603
:102A20000A0042060A0038060A002E060A0024069A
:102A30000A001A060A001006090007060A00FD052A
:102A40000900F4050900EB050900E2050900D905B4
:102A50000900D0050900C7050900BE050900B50534
:102A60000800AD050800A50509009C0508009405AF
:102A700008008C050800840508007C050800740522
:102A800008006C050700650508005D050700560590
:102A900008004E05070047050700400508003805F7
:102AA0000700310507002A050700230507001C055C
:102AB0000600160507000F050700080506000205B9
:102AC0000700FB040600F5040700EE040600E80416
:102AD0000600E2040700DB040600D5040600CF046C
:102AE0000600C9040600C3040600BD040600B704BE
:102AF0000600B1040500AC040600A6040600A0040C
:102B000005009B04060095040500900406008A0455
:102B1000050085040500800406007A04050075049C
:102B20000500700405006B040500660405006104DF
:102B300005005C04050057040500520405004D041F
:102B4000050048040500430405003E0404003A045F
:102B5000050035040500300404002C04050027049A
:102B60000400230405001E0404001A0404001604D3
:102B70000500110404000D04040009040500040408
:102B8000040000040400FC030400F8030400F40340
:102B90000400F0030400EC030400E8030400E40371
:102BA0000400E0030400DC030400D8030400D403A1
:102BB0000400D0030400CC030400C8030300C503D1
:102BC000030024F404D9201BC40C5C0E9804C4092F
:102BD0005F0265077101F405F900FB04B3004804C6
:102BE0008700C10369005803550003034500BE0276
:102BF0003A008402310053022A002902250004020F
:102C00002000E4011C00C8011900AF011700980161
:102C100014008401130071011000610110005101C2
:102C20000E0043010D0036010B002B010B002001AB
:102C30000B00150109000C01090003010800FB004D
:102C40000800F3000800EB000700E4000600DE00C7
:102C50000600D8000600D2000600CC000500C70020
:102C60000500C2000500BD000400B9000400B50065
:102C70000400B1000400AD000400A9000400A50098
:102C80000300A20003009F0004009B0003009800C3
:102C900003009500020093000300900003008D00E4
:102CA00002008B00030088000200860002008400FE
:102CB0000300810002007F0002007D0002007B0013
:102CC0000200790002007700010076000200740023
:102CD000020072000100710002006F0002006D002E
:102CE00001006C0002006A00010069000200670038
:102CF000010066000100650001006400020062003E
:102D0000010061000100600001005F0002005D0041
:102D100001005C0001005B0001005A000100590045
:102D20000100580001005700010056000100550045
:102D30000100540001005300000053000100520044
:102D4000010051000100500001004F0001004E0041
:102D500000004E0001004D0001004C0001004B003E
:102D600000004B0001004A0001004900010048003A
:102D70000000480001004700010046000000460036
:102D8000010045000000450001004400010043002F
:102D90000000430001004200000042000100410029
:102DA000000041000100400001003F0000003F0022
:102DB00001003E0000003E0001003D0000003D001B
:102DC00001003C0000003C0000003C0001003B0012
:102DD00000003B0001003A0000003A000100390009
:102DE0000000390001003800000038000000380001
:102DF00001003700000037000100360000003600F7
:102E000000003600010035000000350000003500EC
:102E100001003400000034000000340001003300E1
:102E200000003300000033000100320000003200D7
:102E300000003200010031000000310000003100CC
:102E400001003000000030000000300001002F00C1
:102E500000002F0000002F0000002F0001002E00B6
:102E600000002E0000002E0001002D0000002D00AB
:102E700000002D0000002D0001002C0000002C009F
:102E800000002C0000002C0001002B0000002B0093
:102E900000002B0000002B0001002A0000002A0087
:102EA00000002A0000002A0001002900000029007B
:102EB000000029000000290000002900010028006E
:102EC0000000280000002800000028000000280062
:102ED0000100270000002700000027000000270055
:102EE0000000270001002600000026000000260048
:102EF000000026000000260001002500000025003B
:102F0000000025000000250000002500000025002D
:102F10000100240000002400000024000000240020
:102F20000000240001002300000023000000230013
:102F30000000230000002300000023000000230005
:102F400001002200000022000000220000002200F8
:102F500000002200000022000100210000002100EA
:102F600000002100000021000000210000002100DD
:102F700000002100010020000000200000002000CF
:102F800000002000000020000000200000002000C1
:102F90000000200001001F0000001F0000001F00B3
:102FA00000001F0000001F0000001F0000001F00A5
:102FB00001001E0000001E0000001E0000001E0098
:102FC00000004D383420582059205A2045004D32F9
:102FD00034004D32332025730057726974696E676F
:102FE00020746F2066696C653A20006F70656E20F2
:102FF0006661696C65642C2046696C653A20006FD7
:1030000070656E206661696C65642C2046696C652C
:103010003A200046696C652073656C65637465646D
:103020000A002053697A653A200046696C65206F72
:1030300070656E65643A20006F70656E2066616928
:103040006C65642C2046696C653A20004E6F7720D1
:1030500066726573682066696C653A20004E6F770A
:1030600020646F696E672066696C653A20002220D3
:10307000706F73002220706172656E743A22005383
:103080005542524F5554494E452043414C4C2074B3
:1030900061726765743A22004B494C4C45442E20BE
:1030A00000747279696E6720746F2063616C6C20A4
:1030B0007375622D67636F64652066696C65732044
:1030C0007769746820746F6F206D616E79206C650C
:1030D00076656C732E204D4158206C6576656C20AA
:1030E00069733A004572726F723A0043616E6E6F97
:1030F00074206F70656E207375626469722000437E
:103100004F4D4D554E49434154494F4E004452593D
:1031100052554E004552524F525300494E464F00B1
:103120004543484F002042403A0020403A00202FBB
:103130000020423A00202F0020543A0042656420CB
:10314000646F6E652E003F0A0020573A00426564A6
:103150002048656174696E672E0020311B3114317F
:103160000D31FF306F66660044454255473A004DC9
:10317000313133205300205A3A0020593A0020437D
:103180006F756E7420583A200020453A00205A3A54
:103190000020593A00583A006265640A002C2073F6
:1031A000797374656D2073746F7070656421204845
:1031B00065617465725F49443A20004865617469CD
:1031C0006E67206661696C65640048656174696E4C
:1031D00067206661696C65640048656174696E6743
:1031E000206661696C65640048656174696E67207A
:1031F0006661696C6564001000C90210012C014011
:1032000001220170011801B0010E01F0010401500A
:1032100002FA00B002F0003003E600D003DC0090B8
:1032200004D2007005C800A006BE000008B400B0BB
:1032300009AA00D00BA000600E960060118C00005F
:1032400015820020197800C01D6E00A0226400B015
:10325000275A00902C500000314600E0343C00100A
:10326000383200903A2800603C1E00A03D140080D7
:103270003E0A00203F00005344207072696E74695A
:103280006E67206279746520004E6F74205344206D
:103290007072696E74696E670A005072696E74208C
:1032A00074696D653A20004E414E494E4954594962
:1032B0004E46CDCCCC3D0AD7233C17B7D13877CC7E
:1032C0002B329595E6241FB14F0A000020410000E3
:1032D000C84200401C4620BCBE4CCA1B0E5AAEC59C
:1032E0009D74BDE9DDEA11241FBECFEFD1E2DEBF40
:1032F000CDBF00E00CBF14E0A0E0B2E0EEE0F8EFDC
:1033000001E00BBF02C007900D92A036B107D9F7BC
:1033100025E1A0E6B4E001C01D92AC3AB207E1F7A6
:1033200019E1C2E7D9E100E006C021970109802F29
:10333000FE010E9481EFC137D10780E00807A9F79D
:103340000E948AE30C94F5FB0C9400002F923F92AC
:103350004F925F926F927F928F929F92AF92BF92A5
:10336000CF92DF92EF92FF920F931F93CF93DF9351
:10337000CDB7DEB7CF58D1090FB6F894DEBF0FBE78
:10338000CDBF0091F60820E6029F800111240A5863
:10339000184F1093700400936F048091FE0D80FF0E
:1033A00019C0AAE3EA2EA5E1FA2EF7018491882339
:1033B00031F00E943B823FEFE31AF30AF6CFD801C7
:1033C0008D918D01882319F00E943B82F8CF8AE00D
:1033D0000E943B8220916F0430917004F90180813A
:1033E0002F5F3F4F8032D1F3F0937004E0936F046E
:1033F0008E3469F010916F04009170046AE270E0FD
:10340000812F902F0E94B6F20097D1F420C08181C5
:1034100090ED980F9A3010F08D3261F73296DF01FF
:1034200031962C9120532A30D0F3CD01FC01019626
:1034300020812032D9F3F0937004E0936F04DACF47
:10344000FC0131968291803231F08A3221F0A12F35
:10345000B02F9D9102C01082F5CFFD0180811196A1
:103460008032D9F380538A3020F00AE315E10C94BE
:10347000033400E010E04AE0409F9001419F300D8E
:1034800011248901005311098191080F111D87FD35
:103490001A95808180538A3078F37F013196D70165
:1034A0008C918032D1F3F0926E04E0926D0421E0B1
:1034B00030E03093650D2093640D9D3411F40C942D
:1034C0006322943511F40C949F33973411F00C94CB
:1034D000C8330C31110509F477C580F404301105A7
:1034E00038F48091AD020230110508F44BC03CC1A4
:1034F0000430110509F42AC50C94F7330A35110577
:1035000009F41CC7A8F50D31110509F4B3C60E3135
:10351000110511F00C94F7330E942F5420E030E095
:10352000A9016091560E7091570E8091580E90919E
:10353000590E0E948AEF4B015C0120E030E048EC1C
:1035400051E46091520E7091530E8091540E9091FF
:10355000550E0E9489EFEE24E394F12C01E0A501C1
:1035600094010E9400536B017C0102E012E086C6C8
:103570000B35110509F4E6C60C35110509F4E7C64B
:103580000C94F733882311F40C94F7330E947C4D8C
:103590008EE69DE00E94619A0E94F5528091FE0D98
:1035A00083FF16C020916E0D30916F0D4091700D0C
:1035B0005091710D6091520E7091530E8091540E86
:1035C0009091550E0E948CF7882309F490C0ACC0EE
:1035D00080907A0D90907B0DA0907C0DB0907D0D29
:1035E00020915E0E30915F0E4091600E5091610E01
:1035F000C501B4010E9489EF6B017C0120E030E03D
:10360000A9010E948CF7882369F28091F90D882323
:1036100031F1C701B6010E94E7F097FF07C090950E
:103620008095709561957F4F8F4F9F4F68317240A5
:10363000810591050CF4B6CF80917A0D90917B0DA8
:10364000A0917C0DB0917D0D80935E0E90935F0EE6
:10365000A093600EB093610E0AE315E133C0209190
:103660009D0230919E0240919F025091A002609174
:1036700072097091730980917409909175090E9483
:103680008CF787FFC6CF80925E0E90925F0EA0925D
:10369000600EB092610E0AE315E1F801849188236F
:1036A00029F00E943B820F5F1F4FF7CF01EB11E023
:1036B000F8018491882309F4ACCF0E943B820F5F0C
:1036C0001F4FF6CFF8018491882329F00E943B8296
:1036D0000F5F1F4FF7CF02E911E0F80184918823B3
:1036E00009F460CF0E943B820F5F1F4FF6CF2091FD
:1036F000720D3091730D4091740D5091750D609164
:10370000560E7091570E8091580E9091590E0E944E
:103710008CF7811109C060910002709101028091C3
:103720000202909103021AC060913102709132023C
:10373000072E000C880B990B0E9492F72091000233
:103740003091010240910202509103020E94F1F770
:103750002AE037ED43E25CE30E94F1F70E94E84B78
:103760000E94DE4B0C94F733882311F40C94F7334A
:103770000E947C4D89E40E94F94C882329F00E9424
:10378000534D6B017C0103C0C12CD12C76018AE41E
:103790000E94F94C882349F00E94534D23966CAF48
:1037A0007DAF8EAF9FAF239706C023961CAE1DAE94
:1037B0001EAE1FAE2397A7019601C701B6010E9456
:1037C000F1F74B015C0123962CAD3DAD4EAD5FADE5
:1037D0002397CA01B9010E94F1F79B01AC01C50111
:1037E000B4010E948AEF0E941BF2AF966CAF7DAFCE
:1037F0008EAF9FAFAF972091520E3091530E4091F4
:10380000540E5091550E27962CAF3DAF4EAF5FAF83
:103810002797A701960127966CAD7DAD8EAD9FAD24
:1038200027970E948AEF67966CAF7DAF8EAF9FAFF0
:1038300067978091560E9091570EA091580EB091B7
:10384000590E63968CAF9DAFAEAFBFAF6397239613
:103850002CAD3DAD4EAD5FAD2397BC01CD010E94B7
:103860008AEF6B966CAF7DAF8EAF9FAF6B97209159
:103870005A0E30915B0E40915C0E50915D0E6F962A
:103880002CAF3DAF4EAF5FAF6F976091760D7091EB
:10389000770D8091780D9091790D0E9489EF2F9688
:1038A0006CAF7DAF8EAF9FAF2F9780917A0D9091C7
:1038B0007B0DA0917C0DB0917D0DE3968CAF9DAFFB
:1038C000AEAFBFAFE39720915E0E30915F0E409197
:1038D000600E5091610EA3962CAF3DAF4EAF5FAF1F
:1038E000A397D701C601B0588BAF9CAFADAFBEAFA9
:1038F00023962CAD3DAD4EAD5FAD239750582B9622
:103900002CAF3DAF4EAF5FAF2B97C0906E0DD090F8
:103910006F0DE090700DF090710DA796CCAEDDAEFE
:10392000EEAEFFAEA79767962CAD3DAD4EAD5FAD49
:103930006797C701B6010E9489EF6B017C01209156
:10394000720D3091730D4091740D5091750DAB96C1
:103950002CAF3DAF4EAF5FAFAB976B962CAD3DAD8F
:103960004EAD5FAD6B97AB966CAD7DAD8EAD9FAD43
:10397000AB970E9489EF4B015C01A70196016BADEB
:103980007CAD8DAD9EAD0E94F1F72B013C01A501F0
:1039900094012B966CAD7DAD8EAD9FAD2B970E94A3
:1039A000F1F79B01AC01C301B2010E948AEF2B0128
:1039B0003C01A50194016BAD7CAD8DAD9EAD0E9427
:1039C000F1F74B015C01A70196012B966CAD7DAD23
:1039D0008EAD9FAD2B970E94F1F79B01AC01C50105
:1039E000B4010E9489EFA30192010E9408F06B01CB
:1039F0007C0120E030E0A9010E948CF787FF0AC01B
:103A00002BED3FE049EC50E4C701B6010E948AEF7C
:103A10006B017C010230110551F42BED3FE049ECC4
:103A200050E4C701B6010E9489EF6B017C0120E0E0
:103A300030E0A901C701B6010E948CF781112AC0AC
:103A4000A7962CAD3DAD4EAD5FADA79727966CAD5B
:103A50007DAD8EAD9FAD27970E948CF781111AC066
:103A6000AB962CAD3DAD4EAD5FADAB9763966CADF7
:103A70007DAD8EAD9FAD63970E948CF781110AC01A
:103A80002BED3FE049EC50E4C701B6010E948AEFFC
:103A90006B017C01AF962CAD3DAD4EAD5FADAF97E8
:103AA000C701B6010E94F1F79B01AC010E94F1F73A
:103AB0004B015C012F962CAD3DAD4EAD5FAD2F9708
:103AC000CA01B9010E94F1F79B01AC01C501B40123
:103AD0000E948AEF0E941BF24B015C012FE632E14B
:103AE00043E85AE30E948CF787FD2CC2C501B4015C
:103AF0000E941CF10E94EDF01B01672B19F4222497
:103B00002394312CB10180E090E00E9490F74B01AA
:103B10005C019B01AC01C701B6010E9476F02796BB
:103B20006CAF7DAF8EAF9FAF2797A50194012F9605
:103B30006CAD7DAD8EAD9FAD2F970E9476F0AB96AC
:103B40006CAF7DAF8EAF9FAFAB97A3962CAD3DAD65
:103B50004EAD5FADA397E3966CAD7DAD8EAD9FADE1
:103B6000E3970E9489EFA50194010E9476F0AF9639
:103B70006CAF7DAF8EAF9FAFAF9727962CAD3DADAD
:103B80004EAD5FAD2797CA01B9010E94F1F720E061
:103B900030E040E05FE30E94F1F79B01AC0160E0A0
:103BA00070E080E89FE30E9489EFA7966CAF7DAF3D
:103BB0008EAF9FAFA7976F96CCACDDACEEACFFACF1
:103BC0006F97C986DA86EB86FC86A396CCACDDAC13
:103BD000EEACFFACA397CD86DE86EF86F88A20E0B8
:103BE00030E040E752E46091000270910102809160
:103BF0000202909103020E9476F06B017C01809199
:103C0000310290913202BC01990F880B990B0E94EE
:103C100092F79B01AC01C701B6010E94F1F72AE0BF
:103C200037ED43E25CE30E94F1F76F966CAF7DAF36
:103C30008EAF9FAF6F970E94D5A39B01AC01285315
:103C40003F4F4F4F5F4FA3962CAF3DAF4EAF5FAF8F
:103C5000A3974BAC5CAC6DAC7EAC2C961FAE2C9796
:103C600041E050E061965FAF4EAF61976196CEAC98
:103C7000DFAC6197C214D30409F43AC10E9406DE96
:103C80000E94D5A38B019C01A396CCACDDACEEAC1D
:103C9000FFACA3970C191D092E093F0937FD0EC073
:103CA0009B01AC0128533F4F4F4F5F4FA3962CAF62
:103CB0003DAF4EAF5FAFA3970E9437972C963FADB5
:103CC0002C973F5F2C963FAF2C9739310CF04BC0AF
:103CD000A7962CAD3DAD4EAD5FADA7972B966CADC5
:103CE0007DAD8EAD9FAD2B970E94F1F76B017C01EE
:103CF00027962CAD3DAD4EAD5FAD2797B201C30108
:103D00000E94F1F7A70196010E948AEF7B018C01C6
:103D1000A7962CAD3DAD4EAD5FADA797B201C301E7
:103D20000E94F1F74B015C0127962CAD3DAD4EADE5
:103D30005FAD27972B966CAD7DAD8EAD9FAD2B976C
:103D40000E94F1F79B01AC01C501B4010E9489EF0B
:103D50002B013C01A701B8012B964CAF5DAF6EAFB4
:103D60007FAF2B975CC061964EAD5FAD6197BA0196
:103D700080E090E00E9490F727962CAD3DAD4EADCF
:103D80005FAD27970E94F1F74B015C010E9473F031
:103D90006B017C01C501B4010E9410F24B015C0172
:103DA000A70196016BAD7CAD8DAD9EAD0E94F1F784
:103DB0002B013C01A501940123966CAD7DAD8EAD28
:103DC0009FAD23970E94F1F79B01AC01C301B201A3
:103DD0000E948AEF2B013C01A50194016BAD7CADE3
:103DE0008DAD9EAD0E94F1F74B015C01A7019601DC
:103DF00023966CAD7DAD8EAD9FAD23970E94F1F7FC
:103E00009B01AC01C501B4010E9489EF2B966CAFF8
:103E10007DAF8EAF9FAF2B972C961FAE2C97920144
:103E2000A30167966CAD7DAD8EAD9FAD67970E9487
:103E30008AEF69837A838B839C832B962CAD3DAD6F
:103E40004EAD5FAD2B976B966CAD7DAD8EAD9FADDE
:103E50006B970E948AEF6D837E838F839887AB96E2
:103E60002CAD3DAD4EAD5FADAB9769857A858B8549
:103E70009C850E948AEF69877A878B879C87AF969B
:103E80002CAD3DAD4EAD5FADAF976D857E858F8519
:103E900098890E948AEF6D877E878F87988BCE01E5
:103EA00001960E94619AE984FA840B851C852D8114
:103EB0003E814F81588569817A818B819C81E09117
:103EC0006704EF936F968CAC9DACAEACBFAC6F97B4
:103ED000DE011D966D010E94ECB36196EEADFFAD63
:103EE000619731966196FFAFEEAF61970F90BECEAE
:103EF000E090760DF090770D0091780D1091790D8E
:103F00002091720D3091730D4091740D5091750D8B
:103F100060916E0D70916F0D8091700D9091710D8B
:103F2000E0916704EF936F968CAC9DACAEACBFACE8
:103F30006F97EAE7CE2EEDE0DE2E0E94ECB30E94F2
:103F4000DE4B0F900E94F5520C94F73380E50E94EF
:103F5000F94C882329F00E94484D6B017C0103C075
:103F6000C12CD12C760183E50E94F94C882321F0E5
:103F70000E94154E6B017C010E940EE20E94F552D8
:103F80008091660D9091670DA091680DB091690DBB
:103F9000C80ED91EEA1EFB1E80914002811105C089
:103FA00060E08CEC91E00E9499760E94D5A3DC0140
:103FB000CB018C199D09AE09BF09B7FD02C00C9455
:103FC000F7330E943797F1CF0E940EE20E944BC553
:103FD0000E942F5411E01093230288E50E94F94CAF
:103FE000E82E89E50E94F94C082F8AE50E94F94CD9
:103FF000F82EE11005C0011105C0982F912705C0CA
:10400000011102C090E001C0982F9093040280E15A
:10401000E2E5FEE0AEE6BDE001900D928A95E1F7A3
:10402000911104C0E11002C00023A9F120E030E0AA
:1040300040E450E460913E0E70913F0E8091400E3E
:104040009091410E0E948AEF2091320E3091330EF2
:104050004091340E5091350E0E948AEF4B015C0165
:104060006093760D7093770D8093780D9093790D12
:1040700020915A0E30915B0E40915C0E50915D0E76
:104080000E94D2F118163CF420E030E0A901C501ED
:10409000B4010E94BE4B80910402811102C0002332
:1040A00021F081E090E00E94F3948091040281115C
:1040B00002C0EE2021F080E090E00E94F394809115
:1040C0000402811103C0F11036C0C6C00E944851DD
:1040D00080E090E0AFE2B3E480936E0D90936F0DBB
:1040E000A093700DB093710D80E090E0A8ECB2E465
:1040F0008093720D9093730DA093740DB093750D12
:10410000E0905A0EF0905B0E00915C0E10915D0EE7
:10411000E092760DF092770D0093780D1093790D63
:10412000A12CB12C65019C01AD0160E070E08FE233
:1041300093E40E94924A80E00E947E8381110C9455
:10414000F7332091360E3091370E4091380E509152
:10415000390E6091520E7091530E8091540E9091D1
:10416000550E0E9489EF20912A0E30912B0E40911E
:104170002C0E50912D0E0E9489EF6B017C018090D6
:10418000560E9090570EA090580EB090590E409039
:104190003A0E50903B0E60903C0E70903D0E209178
:1041A0002E0E30912F0E4091300E5091310E2BAFCC
:1041B0003CAF4DAF5EAF20E030E048EC51E40E94F0
:1041C000D2F187FD2EC020E030E842EA53E4C70177
:1041D000B6010E948CF7181624F1A3019201C501C3
:1041E000B4010E9489EF2BAD3CAD4DAD5EAD0E9498
:1041F00089EF6B017C0120E030E0A9010E94D2F13F
:1042000087FD0FC020E030E04BE653E4C701B60164
:104210000E948CF718162CF082E090E00E94F39434
:104220001BC060E087EE91E00E9499760AE315E1F9
:10423000F8018491882329F00E943B820F5F1F4F71
:10424000F7CF05ED11E0F8018491882329F00E9451
:104250003B820F5F1F4FF7CF0E9448518091DF04D0
:1042600080932302109275070E9416540E9417D95A
:104270000C94F7330E9408360C94F733F8018491BC
:10428000882329F00E943B820F5F1F4FF7CF20E069
:1042900030E048EC51E46091520E7091530E8091E1
:1042A000540E9091550E0E9489EF27E137EB41EDB6
:1042B00058E30E948AEF42E00E94EA820DEF11E08B
:1042C000F8018491882329F00E943B820F5F1F4FE1
:1042D000F7CF20E030E0A9016091560E7091570EA3
:1042E0008091580E9091590E0E948AEF27E137EB8A
:1042F00041ED58E30E948AEF42E00E94EA8208EF13
:1043000011E0F8018491882329F00E943B820F5F1D
:104310001F4FF7CF27E137EB41ED58E3C701B60157
:104320000E948AEF42E00E94EA828AE00E943B8279
:104330000E9416540E9417D90C94F73310926C0403
:104340000C94F73381E080936C040C94F83385E48B
:104350000E94F94CB82E811102C00E940EE228EB97
:10436000822E22E0922E32E5C32E3EE0D32E4AE288
:10437000E42E4EE0F42E00E010E0A12CD4018D914B
:104380004D010E94F94C882309F44EC0F6012081AA
:10439000318142815381C457DF4F2883CC58D040AC
:1043A000C357DF4F3883CD58D040C257DF4F4883C3
:1043B000CE58D040C157DF4F5883CF58D0400E94CD
:1043C000534DD6016D937D938D939C931397C45752
:1043D000DF4F2881CC58D040C357DF4F3881CD58AC
:1043E000D040C257DF4F4881CE58D040C157DF4F31
:1043F0005881CF58D04003301105B1F00E9489EFA9
:104400009B01AC01F70160817181828193810E94DF
:104410008AEFD7016D937D938D939C931397C80179
:104420000E94AE4CAA24A3940F5F1F4FB4E0CB0EA2
:10443000D11CE4E0EE0EF11C0430110509F09ECF12
:10444000AA2021F00E9448510C94F733BB2011F4AC
:104450000C94F73320916E0E30916F0E4091700ED8
:104460005091710E60915E0E70915F0E8091600EA2
:104470009091610E0E94F1F70E94DDF160937E0A37
:1044800070937F0A8093800A9093810A8FB7F89483
:1044900040917E0A50917F0A6091800A7091810A52
:1044A00040934E0E50934F0E6093500E7093510EEA
:1044B0008FBF10926E0A10926F0A1092700A1092BB
:1044C000710A0C94F7330F36110509F4D0C408F0C3
:1044D000E9C00033110509F44BC408F06EC008317F
:1044E000110509F4AEC208F044C00231110509F407
:1044F0003BC710F50230110508F4CCC1013111059C
:1045000011F00C94F73360E087E392E00E94997613
:104510009FB7F89480910B018D7F80930B019FBF13
:1045200089989FB7F894809108018E7F8093080145
:104530009FBF12980C94F7330531110509F477C227
:1045400040F40431110511F00C94F7330FE412E03C
:104550002DC20631110509F46EC20731110511F0A3
:104560000C94F73340E061E0C7010E94E9D50C9458
:10457000F7330C31110509F48BC238F40A311105F7
:1045800009F474C208F468C27FC20F31110509F43E
:10459000EBC330F40E31110509F481C20C94F733EA
:1045A0000032110509F490C30A32110511F00C9480
:1045B000F7330E9474CC0C94F7330435110509F4D9
:1045C000D3C608F045C00E34110509F4F3C378F4DE
:1045D0000C34110509F4D0C308F0E8C30B341105FD
:1045E00011F00C94F7330E9476C50C94F733013523
:1045F000110509F48DC6F0F40035110511F00C9485
:10460000F73380910A01806180930A019FB7F89483
:1046100080910B018F7E80930B019FBF81E080937F
:10462000330260E08BEE92E00E9499760E94BF76A2
:104630000C94F7330235110509F492C603351105C0
:1046400011F00C94F73381E080936B040C94F833F1
:104650000A36110509F424C6A8F40C35110509F42D
:10466000C5C630F40535110509F4ADC60C94F73311
:104670000836110509F4A2C30936110509F41CC452
:104680000C94F7330C36110509F4F5C308F42EC663
:104690000D36110509F42CC40E36110509F4D4C3E6
:1046A0000C94F7330C3D110511F40C945C2D08F0BB
:1046B00078C00C38110509F4E6C370F5033711050D
:1046C00009F41DC750F40137110509F4D8C308F0E7
:1046D00023C782EB92E00E94C5960737110509F4C3
:1046E00026C758F40537110511F00C94F73360E034
:1046F000C7010E94AE760C94F7330837110509F410
:104700000FC70937110511F00C94F73310922302EB
:104710001092DF040C94F733093C110511F40C944A
:10472000272C78F40E3B110509F4B6C5083C110599
:1047300011F40C94DC2B0139110511F00C94F733B2
:104740008BC70C3C110511F40C945D2C80F40B3CD0
:10475000110511F00C94F73398E1E92E99E0F92E48
:1047600008EB12E024E0D22ED00E0C944E2C0D3C1F
:10477000110511F40C94C72C0E3C110511F00C948A
:10478000F73318EBA12E12E0B12E02E5C02E0EE099
:10479000D02E86E3E82E8EE0F82E00E010E00C9498
:1047A000232D0239F1E01F0711F40C94203290F50B
:1047B0000D3231E0130711F40C94F82D90F4023E01
:1047C000110511F40C94822D0C3251E0150711F4EF
:1047D0000C94D22D0D3D110511F00C94F7330C946F
:1047E000692D0F3281E0180711F40C941D2F10F47D
:1047F0000C94B22E0039A1E01A0711F40C941D326A
:104800000139114011F00C94F73381E00E94854B7F
:104810000C94F733063FE1E01E0711F40C9430339B
:10482000F8F40C3A21E0120711F40C94243248F405
:104830000A39114011F00C94F7330E94B3D80C944C
:10484000F733043F51E0150711F40C942D33053F65
:10485000114011F00C94F7330E94315B0C94F73344
:10486000033593E0190711F40C94423338F4073FF1
:10487000114011F40C9433330C94F733003AE3E015
:104880001E0709F467C2073E134011F40C948F33DE
:104890000C94F73380E50E94F94C882359F00E946C
:1048A000484D4B015C0111E0672B682B692B31F4FB
:1048B00010E004C010E0812C912C540183E50E948B
:1048C000F94C882399F00E94154E4B015C0111119F
:1048D0000FC0672B682B692B59F4D7018C91882363
:1048E00039F061E0C7010E94AE7607C01123A9F339
:1048F00060E086E292E00E94997681E08093BB0DB1
:104900001092BA0D0E940EE20E94F5528114910499
:10491000A104B10439F18091660D9091670DA091C9
:10492000680DB091690D880E991EAA1EBB1E83E00A
:1049300090E09093650D8093640D0E94D5A3DC01F7
:10494000CB0188199909AA09BB09B7FD02C00C94CB
:104950002E348091480982FF02C00C942E340E94AC
:104960003797EBCF83E090E09093650D8093640DD3
:104970008091480982FD03C00E943797F9CF81E0FA
:1049800090E09093650D8093640D8091CD0A60E076
:10499000882331F08AE092E00E9499760C94F733F4
:1049A00089E192E00E9499760C94F733F8018491A2
:1049B000882329F00E943B820F5F1F4FF7CF109290
:1049C000530D1092520D40E050E0BA018EEF9AE084
:1049D0000E94118B8BE1EEEFFAE0DE01159601905B
:1049E0000D928A95E1F78091FC0A9091FD0A9C83D3
:1049F0008B838AE693E09A83898340E050E0BE018E
:104A00006F5F7F4F8DE594E00E94BAD3CE0101968F
:104A10000E94A59600E412E0F8018491882311F425
:104A20000C94F7330E943B820F5F1F4FF5CF0E941B
:104A3000DAC20C94F7331092CD0A1092CE0A0C947D
:104A4000F7338091CE0A882319F081E08093CD0A54
:104A50000E9476C50C94F7338091CD0A882311F417
:104A60000C94F7331092CD0A0C94F7338091CE0A50
:104A7000882311F40C94F73383E50E94F94C8111DB
:104A80000C943A340C94F7330E9468E20C94F73398
:104A900040E060E0C7010E94E9D50C94F7338091B3
:104AA000CE0A882311F40C94F73388E99CE00E9425
:104AB000D08A88E99CE00E9457911092CC0A10920B
:104AC000CB0AC0906D04D0906E048091CE0A8823EA
:104AD00011F40C94F73388E99CE00E9457911092EE
:104AE000CD0A1D8218861C821B828AE693E09A8377
:104AF00089838AEF9AE090931A0B8093190BD60161
:104B00008C91FE01B0967F018F3209F05EC06FE29A
:104B100070E0C6010E94B6F28C010F5F1F4F9E012C
:104B20002F5F3F4F49010115110509F454C06FE291
:104B300070E0C8010E94B6F25C01009709F44CC015
:104B40000817190708F048C03C01601A710AA30150
:104B5000B801C7010E94DFF2F701E60DF71D1082D0
:104B60008701D8018D918D01882319F00E943B8225
:104B7000F8CF8AE00E943B826091190B70911A0B6A
:104B80006115710511F06C5F7F4F21E0A701CE0127
:104B900005960E945F91811110C0A701FF0C660B62
:104BA000770B86E892E00E9461518EE20E943B8280
:104BB000C4010E94A5960C94F73390921A0B809230
:104BC000190B85010F5F1F4FAECF8BE19BE09093D8
:104BD0001A0B8093190B86016091190B70911A0BB7
:104BE0006115710511F06C5F7F4F18A21BA222E0C6
:104BF000A801C7010E945F91811102C0D12C1DC084
:104C0000C7010E948F848823C9F36CA57DA58EA55A
:104C10009FA541E00E942089882381F3E8A9B0E2A2
:104C2000EB9FF0011124EE58F14F309739F385EEE8
:104C300080831BA20E94E088D82EC7010E94CC521C
:104C4000D11005C09EE6E92E92E0F92E22C080E642
:104C5000E82E82E0F82EF7018491882331F00E943B
:104C60003B82EFEFEE1AFE0AF6CFD8018D918D014F
:104C7000882319F00E943B82F8CF8AE00E943B8291
:104C80001092490D10924A0D10924B0D10924C0D3E
:104C900015C0F7018491882331F00E943B82BFEF59
:104CA000EB1AFB0AF6CFD8018D918D01882319F0FC
:104CB0000E943B82F8CF8EE20E943B82CE01019699
:104CC0000E94A5960C94F7338091CD0A81110E9421
:104CD0000EE200916D0410916E0461E270E0C80173
:104CE0000E94B6F2009719F08C010F5F1F4F80E50C
:104CF0000E94F94C882349F0FF24F39480916004CA
:104D0000909161048017910708F0F12C8091CE0AF0
:104D1000882311F40C94F7334F2D61E0C8010E94F1
:104D2000E9D583E50E94F94C882349F0809160041D
:104D3000909161048017910710F40C944B3480918A
:104D4000CE0A882319F081E08093CD0AF1100C94EB
:104D5000F7337ECE81E08093CC0A40E060E0C7016B
:104D60000E94E9D50C94F7330E9418E20C94F733B3
:104D70000E94CAC70C94F7338091A20A9091A30AAB
:104D8000019711F00C94F73382E090E09093A30A1E
:104D90008093A20A0E94D5A36093AC0A7093AD0AD7
:104DA0008093AE0A9093AF0A0C94F7330E941C854F
:104DB0000C94F7330E94ABC60C94F73388E690E06E
:104DC0000E94CD5181110C94F7338091FE0D83FF29
:104DD00002C00C94F73383E50E94F94C882311F448
:104DE0000C94F7330E94534D0E94E7F070937109C1
:104DF000609370090E943F840E94534D20E030E090
:104E00004AEA52E40E948CF718163CF00E941C8576
:104E100060E085EA92E00E9499760E94534D2091CD
:104E200072093091730940917409509175090E947B
:104E3000D2F1181614F00C94F73360E08AE992E08E
:104E40000E9499760C94F7338EE40E94F94C8823E3
:104E500011F40C94F7330E94B1E2609362047093F2
:104E6000630480936404909365040C94F7330E9468
:104E7000F8D90C94F733109288020C94F7330E94FF
:104E8000CFD90C94F7338091FE0D83FF02C00C94B0
:104E9000F73383E50E94F94C882311F40C94F7331F
:104EA0000E94534D0E94E7F07093DF0D6093DE0D7A
:104EB0000E94AE640C94F73389E690E00E94CD51D5
:104EC000811110C00BEB12E0F8018491882329F0C6
:104ED0000E943B820F5F1F4FF7CF0E9462DA8AE089
:104EE0000E943B821092650D1092640D0C94EE3579
:104EF0008DE690E00E94CD5181110C94F7338091A2
:104F0000FE0D83FF02C00C94F73383E50E94F94C39
:104F100028968FAF2897811105C082E50E94F94C31
:104F20008823C1F10E94534D0E94E7F070937109EC
:104F3000609370090E943F840E94534D20E030E04E
:104F40004AEA52E40E948CF7181614F40C945D346B
:104F50000E941C8560E08EED92E00E94997660913F
:104F6000700970917109072E000C880B990B0E9433
:104F700092F7209172093091730940917409509110
:104F800075090E94D2F118162CF460E083ED92E0CE
:104F90000E94997686E40E94F94C8093DB0D882369
:104FA00051F00E94534D609391027093920280934E
:104FB00093029093940283E50E94F94C882351F068
:104FC0000E94534D6093990270939A0280939B02C2
:104FD00090939C0282E40E94F94C882351F00E9435
:104FE000534D60939502709396028093970290932D
:104FF000980281E0809388021092650D1092640DF2
:1050000023961CAE1DAE1EAE1FAE239727961CAE78
:105010001DAE1EAE1FAE27971BAE2C961FAE2C9753
:10502000FCE36096FFAF60972CE164962FAF649726
:1050300036E468963FAF6897C12CD12CA0E8EA2EE1
:10504000BFEBFB2E812C912C540160917009709163
:105050007109072E000C880B990B0E9492F7162FEE
:10506000072F782E692E262F372F482F592FB6015C
:10507000C7010E948CF7882301F1209172093091B9
:1050800073094091740950917509612F702F872D14
:10509000962D0E948CF7881F8827881F8BAF289633
:1050A000CFAC2897CC2069F0882359F060E08EEBD4
:1050B00092E00E9499760C94F7331C2D0D2D7E2CD6
:1050C0006F2C0E94D5A36B017C01DC01CB012796DC
:1050D0002CAD3DAD4EAD5FAD2797821B930BA40B5E
:1050E000B50BB7FD49C0D701C60188519C4FAF4FE2
:1050F000BF4F27968CAF9DAFAEAFBFAF27970E9433
:1051000062DAFFEC4F2EF2E05F2EF20184918823E9
:1051100031F00E943B829FEF491A590AF6CF811461
:105120009104A104B104D1F0D501C401805F984D70
:10513000AF4FBF4FBC01CD016C197D098E099F098E
:1051400028EE33E040E050E00E9498FBCA01B9012C
:105150000E94C7828AE00E943B820EC0ECEC4E2E79
:10516000E2E05E2EF2018491882331F00E943B82BE
:10517000FFEF4F1A5F0AF6CF0E9437970E94F55251
:10518000209072093090730940907409509075090D
:105190009101A201612F702F872D962D0E9489EF1A
:1051A0009F7781149104A104B10449F420E030E018
:1051B00040E85FE30E948CF787FF0BC008C020E047
:1051C00030E040E450E40E94D2F1181614F4460195
:1051D0005701FBADFF2309F443C023962CAD3DAD31
:1051E0004EAD5FAD2397211531054105510541F0C5
:1051F000D701C601821B930BA40BB50BB7FD30C0C2
:105200009101A2012C966FAD2C9760967FAD6097AF
:1052100064968FAD649768969FAD68970E9489EFFA
:1052200020E030E040EC5FE30E948CF787FD3ECF4A
:10523000D701C601805A9541AF4FBF4F23968CAF1F
:105240009DAFAEAFBFAF23972C962FAE2C97609635
:105250003FAE609764964FAE649768965FAE68976E
:1052600080918802882309F421CF81149104A1043C
:10527000B10429F4C12ED02EE72CF62CE6CE90E115
:10528000C91A97E2D90AE108F108C818D908EA084A
:10529000FB08F7FE0BCFEECF0E94E4DA0C94F73355
:1052A00083E50E94F94C882321F00E94A4E28C013E
:1052B00002C00FEF10E080E50E94F94C882319F03E
:1052C0000E94A4E202C080E090E098010F3F110527
:1052D00019F010F02FEF30E0892B11F00C94F73318
:1052E0003093DD0D2093DC0D0C94F73380E50E94A4
:1052F000F94C811106C01092DD0D1092DC0D0C945A
:10530000F7330E94A4E2892B11F00C94F733F3CF0A
:105310000E94FE640E940EE20E94AD961092DD0D86
:105320001092DC0D68EE73E080E090E00E949DA397
:1053300080910A01806180930A019FB7F89480915F
:105340000B01806180930B019FBF1092330260E0DC
:1053500088EF92E00E9499760E94BF760C94F73312
:1053600010926B040C94F73383E50E94F94C882368
:1053700061F00E94154E60938402709385028093C1
:105380008602909387020C94F73388E50E94F94CCB
:1053900081110C94CA3389E50E94F94C81110C9457
:1053A000CA338AE50E94F94C81110C94CA3385E412
:1053B0000E94F94C81110C94CA330E940EE20E94A3
:1053C000AD960C94F73383E50E94F94C882311F4D1
:1053D0000C94F7330E94154E60936A0D70936B0D19
:1053E00080936C0D90936D0D0C94F73368EB862EC3
:1053F00062E0962E02E61EE078E1A72E79E0B72E55
:10540000AFEFBDE0BCAFABAF312CF40181914F01E8
:105410000E94F94C882309F460C0F3E03F1255C0A4
:105420000E94534D2B013C0120E030E040EA51E462
:105430000E948CF787FF43C0A3019201D8016D91B0
:105440007D918D919C910E9476F06B017C019B0176
:10545000AC01609128097091290980912A099091E5
:105460002B090E94F1F76093280970932909809312
:105470002A0990932B09A7019601F501608171819A
:10548000828193810E94F1F7D5016D937D938D9375
:105490009C931397EBADFCAD608171818281938108
:1054A0000E9490F7A70196010E94F1F70E94EDF08B
:1054B000ABADBCAD6D937D938D939C931397F80129
:1054C000408251826282738208C00E94534DD8018B
:1054D0006D937D938D939C93139733940C5F1F4F23
:1054E000B4E0AB0EB11CEBADFCAD3496FCAFEBAF52
:1054F000F4E03F128ACF0E94BAB20C94F73303E073
:1055000013E0F8018491882311F40C94F7330E947E
:105510003B820F5F1F4FF5CF0E9417D90C94F733D2
:1055200081E0809323028093DF040C94F83300EE33
:1055300013E0F8018491882329F00E943B820F5FD9
:105540001F4FF7CF08ED13E0F8018491882329F06D
:105550000E943B820F5F1F4FF7CF309903C004E9D1
:1055600013E002C009E913E0D8018D918D01882371
:1055700019F00E943B82F8CF8AE00E943B8200ED46
:1055800013E0F8018491882329F00E943B820F5F89
:105590001F4FF7CF329903C004E913E002C009E9B5
:1055A00013E0D8018D918D01882319F00E943B8270
:1055B000F8CF8AE00E943B8208EC13E0F801849166
:1055C000882329F00E943B820F5F1F4FF7CF349949
:1055D00003C004E913E002C009E913E0D8018D918A
:1055E0008D018823A1F10E943B82F8CF80E20E94C6
:1055F0003B828AE50E94F94C882311F40C94813394
:105600000E94534D6B017C0120E030E040EA51ECF8
:105610000E94D2F187FF02C00C945A3320E030E0A0
:1056200040EA51E4C701B6010E948CF7181614F441
:105630000C945A33C0922402D0922502E0922602A2
:10564000F092270242E0C701B6010E94EA828AE096
:105650000E943B820C94F73383E50E94F94C882327
:10566000F9F00E943B4D8230C0F004EE10E3F801E7
:105670008491882329F00E943B820F5F1F4FF7CF50
:105680000AEF13E0F8018491882311F40C94F733A6
:105690000E943B820F5F1F4FF5CF813009F446C057
:1056A00088E40E94F94C882391F00E943B4D8A3A8D
:1056B00091053CF08E31F1E09F072CF08DE191E0F7
:1056C00002C08AEA90E09093E30D8093E20D86E4B5
:1056D0000E94F94C882381F00E943B4D8F3F910539
:1056E00019F014F08FEF90E097FF02C080E090E097
:1056F0009093E50D8093E40D82E40E94F94C882399
:1057000011F40C94F7330E943B4D8530910534F031
:10571000883891052CF087E890E002C085E090E0A1
:105720009093E10D8093E00D0C94F73388E40E9490
:10573000F94C882391F00E943B4D8A3A91053CF048
:105740008E3121E092072CF08DE191E002C08AEACF
:1057500090E09093E90D8093E80D86E40E94F94C67
:10576000882381F00E943B4D8F3F910519F014F082
:105770008FEF90E097FF02C080E090E09093EB0DF8
:105780008093EA0D82E40E94F94C882311F40C9472
:10579000F7330E943B4D8530910534F088389105F0
:1057A0002CF087E890E002C085E090E09093E70D50
:1057B0008093E60D0C94F73388EC90E00E94CD5175
:1057C00081110C94F73384E40E94F94C882311F47E
:1057D0000C94F7330E94534D11E020E030E0A90112
:1057E0000E948CF7811101C010E010933809112339
:1057F00059F10091660410E00E94534D000F111FF3
:10580000000F111FF801E85DFD4F608371838283F3
:10581000938320E030E0A901609128027091290271
:1058200080912A0290912B020E948CF781110CC06A
:1058300080E090E0A0E4B0E48093280290932902F5
:10584000A0932A02B0932B020E945092D0C730E05E
:10585000E32E39E0F32E08EB12E044E0D42ED00E14
:10586000D8018D918D010E94F94C882349F00E9446
:10587000534D0E94EDF0F70160837183828393831F
:10588000F4E0EF0EF11CD012EBCF0E9472B2AFC762
:10589000F4E0EF0EF11CD01609F4A9C7D8018D91E0
:1058A0008D010E94F94C882399F30E94534DF70112
:1058B0006083718382839383EBCF83E50E94F94CED
:1058C0008823D9F00E94534DAB01BC0140933409A9
:1058D0005093350960933609709337094093F8085F
:1058E0005093F9086093FA087093FB0886E794E0F8
:1058F0000E9499518AE00E943B8280E50E94F94C07
:10590000882399F00E94534DAB01BC0140933409A8
:1059100050933509609336097093370989E594E00F
:105920000E9499518AE00E943B8282E50E94F94CD4
:10593000882399F00E94534DAB01BC014093FC08B1
:105940005093FD086093FE087093FF088AE394E08B
:105950000E9499518AE00E943B8284E50E94F94CA2
:10596000882309F444C70E94534DAB01BC01409306
:10597000F8085093F9086093FA087093FB088CE1DB
:1059800094E00E9499518AE00E943B8230C783E5EF
:105990000E94F94C882351F00E94534D60931409E2
:1059A00070931509809316099093170984E50E9456
:1059B000F94C882351F00E94534D60931009709365
:1059C0001109809312099093130982E40E94F94C03
:1059D000882351F00E94484D6093FA0D7093FB0D9F
:1059E0008093FC0D9093FD0D88E50E94F94C88236F
:1059F00051F00E94534D60933009709331098093A8
:105A00003209909333098AE50E94F94C882351F0BA
:105A10000E94534D60932C0970932D0980932E0999
:105A200090932F0985E40E94F94C882309F4DFC67E
:105A30000E94534D609328097093290980932A0985
:105A400090932B09D4C6D5018D915D010E94F94C2C
:105A5000882311F10E94534D2B013C01F701208155
:105A60003181428153810E9489EF9B01AC01D601B3
:105A70006D917D918D919C910E948AEFF6016083DA
:105A8000718382839383D7014D925D926D927C9254
:105A90001397C8010E94AE4C0F5F1F4FB4E0CB0EAE
:105AA000D11CE4E0EE0EF11C0330110561F60E94FA
:105AB00048510E9417D99BC683E50E94F94C882360
:105AC00009F495C60E943B4D9093320280933102B7
:105AD0008EC68DED90E00E94CD51811188C683E580
